:100000000C94BD000C94E5000C94E5000C9453078F
:100010000C94E5000C94E5000C94E5000C94E500CC
:100020000C94E5000C9451110C94E5000C94E5003F
:100030000C94E5000C94E5000C94E5000C94E500AC
:100040000C94A1140C94E5000C948D170C94BF171C
:100050000C94E5000C94E5000C94E5000C94E5008C
:100060000C947B130C94E50081082B09E408D40858
:10007000C408B408A0081E0835093509E808DC08DA
:10008000CC08BC08A8082008350924083008350920
:10009000350928082608350935093509350935098E
:1000A00035093509350935090A080A0835093509B8
:1000B00035093509350975083F098C09C709C7098C
:1000C000C709C709C709C709C709C709C709C709B0
:1000D000C709C709C7094E0948095F0970097F099F
:1000E000C709C709C7095C094B096D09730982096A
:1000F0008509BF0CCA0CD50CE00CEB0CF60C010DFD
:10010000100D1F0D3D0D510D510DA70CAA0C510DD9
:10011000B60CB90C510DBC0C000000080002010027
:1001200000030407000000000000000001020408B2
:100130001020408001020408102001020408102051
:10014000040404040404040402020202020203037D
:100150000303030300000000230026002900000021
:100160000000250028002B000000000024002700CC
:100170002A00040C3F12EF17300C11241FBECFEFE2
:10018000D8E0DEBFCDBF12E0A0E0B1E0E0E7FFE3E2
:1001900002C005900D92A637B107D9F724E0A6E773
:1001A000B2E001C01D92AB33B207E1F711E0C8E73E
:1001B000D1E004C02297FE010E94811AC237D10704
:1001C000C9F70E9433180C94AB1F0C940000CF9316
:1001D000C82F60E00E94E91561E08C2F0E94E915AC
:1001E00060E08C2FCF910C94E9152F923F924F92A3
:1001F0005F926F927F928F92AF92CF92DF92EF9247
:10020000FF920F931F93CF93DF9300D0CDB7DEB74C
:100210003C012B011A016DE471E0489629833A8371
:100220000E9453196DE471E0C3014E960E94531968
:10023000B201C3010E94931CB101C30104960E9444
:10024000931C29813A81B901C30108960E94931C2D
:10025000B801C3010C960E94931CB701C3014096DC
:100260000E94931CB601C30144960E94931CF301A3
:1002700084A2A5A20F900F90DF91CF911F910F91B3
:10028000FF90EF90DF90CF90AF908F907F906F9026
:100290005F904F903F902F9008950F931F93CF93AF
:1002A000DF93EC018A01EE81FF818481958197FDC6
:1002B000019695958795998388832A813B8182173A
:1002C0009307B9F0821B930B9D838C83019721F4D4
:1002D00089E993E00E94AF188C819D81019629F4F1
:1002E000B80189E993E00E94AF18888199819B83C6
:1002F0008A83DF91CF911F910F910895CF93DF9360
:10030000EC01EE81FF818481958197FD01969595A1
:100310008795998388832A813B818217930709F403
:100320004AC0821B930B9D838C830197F1F48091CB
:100330007602909177028130910571F02CF4892B2F
:10034000A1F46DE071E00DC08230910541F003979A
:1003500061F469E171E005C061E171E002C065E14D
:1003600071E089E993E00E94C1188C819D8101961A
:10037000F1F480917602909177028130910571F0CD
:100380002CF4892BA1F46DE171E00DC08230910550
:1003900041F0039761F469E271E005C061E271E048
:1003A00002C065E271E089E993E00E94C11888818A
:1003B00099819B838A83DF91CF910895AF92BF92F9
:1003C000CF92DF92EF92FF920F931F93CF93DF9321
:1003D0001F92CDB7DEB75C01162F6A017C0182E067
:1003E000E80EF11C6DE471E0C70129830E945319E6
:1003F0006DE471E0C50108960E945319F501168756
:10040000D182C08229812787008B6DE471E0C7010A
:100410000E948919F501808191810F90DF91CF9120
:100420001F910F91FF90EF90DF90CF90BF90AF9012
:100430000C943910883038F08E3040F0863148F016
:10044000E0E0F0E008C0EDE6F0E005C0EBE6F0E04B
:1004500002C0ECE6F0E09081883068F441E050E0C2
:1004600060E070E0082E04C0440F551F661F771F20
:100470000A94D2F715C0482F50E09A018E3018F434
:100480002850310902C02E50310941E050E060E0AF
:1004900070E004C0440F551F661F771F2A95D2F7DE
:1004A000492B40833BB3883050F021E08E3008F474
:1004B00020E091E001C0990F2A95EAF701C094E08D
:1004C000932B9BBB20916800883050F091E08E30D8
:1004D00008F490E081E001C0880F9A95EAF701C026
:1004E00084E0822B809368000895AF92BF92CF92F0
:1004F000DF92EF92FF920F931F93CF93DF93CDB7CD
:10050000DEB72C970FB6F894DEBF0FBECDBF7C01CF
:100510006B015A016DE471E0CE0107960E945319F8
:1005200000E010E0F601848195819501281B390BCC
:100530000217130748F465E471E0CE0107960E94A4
:10054000001A0F5F1F4FEECFBE01695F7F4FCE01D4
:1005500001960E948019B601CE0101960E94231ACD
:10056000BC01C7010E948019CE0101960E94E518C6
:10057000CE0107960E94E518C7012C960FB6F89495
:10058000DEBF0FBECDBFDF91CF911F910F91FF90C6
:10059000EF90DF90CF90BF90AF900895CF93DF930F
:1005A000CDB7DEB72C970FB6F894DEBF0FBECDBF28
:1005B000E0917A02E43039F480919E0290919F029A
:1005C0000E947E0144C080910A01F0E0EE0FFF1FFF
:1005D000EC56FD4F60817181882381F06C5F7F4F05
:1005E000CE0101960E945319E0917A02F0E0EE0FDD
:1005F000FF1FEC56FD4F6081718111C0645F7F4F1A
:10060000CE0101960E945319E0917A02F0E0EE0FBC
:10061000FF1FEC56FD4F60817181685F7F4FCE01F7
:1006200007960E945319AE014F5F5F4FBE01695F8D
:100630007F4F80919E0290919F020E944D01CE01BA
:1006400007960E94E518CE0101960E94E5182C96A7
:100650000FB6F894DEBF0FBECDBFDF91CF910895E6
:100660000F931F93CF93DF938091BC008B7F809378
:10067000BC0062E082E10E94B01562E083E10E946A
:10068000B01564E170E080E090E00E941A1583E10B
:100690000E941F16892B09F444C082E10E941F1694
:1006A00021E0892B09F020E0C5E1D0E0222309F404
:1006B00040C02197A1F160E083E10E94B01561E0A4
:1006C00083E10E94B0158AE090E00E94421560E04C
:1006D00083E10E94B01562E083E10E94B0158AE0D8
:1006E00090E00E94421583E10E941F1621E0892BB1
:1006F00009F020E005E110E02223A9F001501109E2
:1007000061F062E370E080E090E00E941A1583E1FE
:100710000E941F16892B39F4F1CF82E02BC083E0B1
:1007200029C081E027C082E10E941F16892B09F4AD
:10073000C0CF60E082E10E94B01561E082E10E94DA
:10074000B0158AE090E00E94421560E082E10E94CC
:10075000B01562E082E10E94B0158AE090E00E944C
:10076000421560E082E10E94B01560E083E10E94E2
:10077000B01580E0DF91CF911F910F910895EF9216
:10078000FF920F931F93CF93DF93CDB7DEB72D97D3
:100790000FB6F894DEBF0FBECDBF8C017C0182E0A6
:1007A000E80EF11CB701C80108960E946919F8010A
:1007B00060817181AE01435F5F4FCE0107960E9459
:1007C000780F40E150E0BE01695F7F4FCE01019696
:1007D0000E947502BE016F5F7F4FC7010E946919B9
:1007E000CE0101960E94E518CE0107960E94E518F9
:1007F0008D85843030F00E9430038EEC92E00E94B0
:100800000C122D960FB6F894DEBF0FBECDBFDF9150
:10081000CF911F910F91FF90EF900895242F883072
:1008200018F0E4EAF2E002C0E6EAF2E08770462F50
:10083000682FCF010E940E0F882331F00E943003F1
:100840008EEC92E00C940C120895AF92BF92CF926E
:10085000DF92EF92FF920F931F93CF93DF938C0160
:100860007B01A12CB12CCA2DD0E0CB2CD12CF801CE
:1008700082819601280F311DC217D30774F5BE017E
:10088000C7010E94361ADC018C91BE018E3299F4A8
:1008900061507109C7010E94361AD801ED91FC918F
:1008A000EC0FFD1F319741E0DC016C9180810E94CB
:1008B0000E04B39410C0C7010E94361ACC19DD098A
:1008C000D801ED91FC91EC0FFD1F40E0DC016C9133
:1008D00080810E940E04A394C6CFDF91CF911F9117
:1008E0000F91FF90EF90DF90CF90BF90AF90089561
:1008F0000F931F93CF93DF9300D000D000D0CDB7DC
:10090000DEB78C01FC018581B801882319F0605F96
:100910007F4F02C0665F7F4FCE0101960E94801913
:10092000BE016F5F7F4FC8010E942504CE01019672
:100930000E94E51826960FB6F894DEBF0FBECDBF15
:10094000DF91CF911F910F910895FF920F931F9305
:10095000CF93DF9300D000D000D0CDB7DEB7F82E14
:1009600080918C0290918D0228E3F21206C06DE214
:1009700071E040960E9489192EC0209181022111B8
:1009800005C069E471E040960E9489196091810276
:1009900070E080918C0290918D0240960E94361AF0
:1009A000FC01F082809181028F5F8093810200912F
:1009B0008C0210918D0281E0F80185830E94EB1476
:1009C000F801668377838087918780918C0290916C
:1009D0008D020E94780480918102843018F4F8E33B
:1009E000FF123DC000918C0210918D02005F1F4FDD
:1009F00062E371E0CE0101960E945319B801CE0165
:100A000001960E94231ABC0189E993E00E94AF1865
:100A1000CE0101960E94E51800918C0210918D0282
:100A2000F80115820E94EB14F801668377838087B2
:100A30009187809181028150833078F480918C027B
:100A400090918D026DE271E00A960E948919809161
:100A50008C0290918D020E94780410928102269659
:100A60000FB6F894DEBF0FBECDBFDF91CF911F91BF
:100A70000F91FF90089520917902222329F0BC0163
:100A800089E993E00C94AF18862F0C94A504AF92DB
:100A9000BF92CF92DF92EF92FF920F931F93CF936B
:100AA000DF93CDB7DEB727970FB6F894DEBF0FBE42
:100AB000CDBF8C016B015A016DE471E00A962F8362
:100AC0000E945319780180E1E80EF11C6DE471E099
:100AD000C7010E945319F801D182C0822F8122835D
:100AE000B482A38268E471E0CE0101960E9453199A
:100AF000BE016F5F7F4FC8010E942504CE010196A1
:100B00000E94E518F80115826DE471E0C7010E94AA
:100B1000891927960FB6F894DEBF0FBECDBFDF91BF
:100B2000CF911F910F91FF90EF90DF90CF90BF90EA
:100B3000AF900895CF93C82F662319F0CF910C94EE
:100B4000E70061E00E94E91560E08C2F0E94E91542
:100B500061E08C2FCF910C94E915CF93C62F61E003
:100B6000413309F060E00E94E91560E08C2F0E949B
:100B7000E91561E08C2FCF910C94E9150F931F9329
:100B8000CF93DF938C0160E084E00E949A05CFE070
:100B9000D0E0BE01C8010E94361AFC01408163E02A
:100BA00082E00E94AD052197A0F784E00E94E70053
:100BB00060E087E00E949A05CFE1D0E0BE01C80165
:100BC0000E94361AFC01408166E085E00E94AD0576
:100BD0002197CF30D10591F787E0DF91CF911F9119
:100BE0000F910C94E700EF92FF920F931F93CF9316
:100BF000DF9300D000D000D0CDB7DEB7E0917A020D
:100C0000F0E0EE0FFF1FEC56FD4F60817181685ED2
:100C10007F4F80918802909189020A960E946919FB
:100C2000E0917A02F0E0EE0FFF1FEC56FD4F60817D
:100C30007181625E7F4F80918A0290918B020A9649
:100C40000E94691980917B02882341F178E8E72EA0
:100C500072E0F72E00E010E00230110521F48091DF
:100C60007902811105C0F701808191810E94780489
:100C70000F5F1F4FF2E0EF0EF11C0330110561F71B
:100C80006EE872E0CE0101960E948019CE010196B5
:100C90000E94BE05CE0101960E94E51826960FB669
:100CA000F894DEBF0FBECDBFDF91CF911F910F91A2
:100CB000FF90EF9008950F931F93CF93DF93082F2A
:100CC00080937A02C4E9D2E010E0E991F99165A13C
:100CD00070E08EE892E00E94361AFC01101302C008
:100CE00081E301C080E380831F5F153071F76BE003
:100CF00070E08EE892E00E94361AEC01E0917A02F0
:100D0000F0E0EE0FFF1FEC56FD4F0190F081E02D5B
:100D100064A170E08EE892E00E94361AFC018081A6
:100D20008883DF91CF911F910F910C94F305EF927F
:100D3000FF920F931F93CF93DF9300D000D000D08A
:100D4000CDB7DEB76AE070E08EE892E00E94361A16
:100D500020E3FC01208366E371E0CE0101960E944E
:100D60005319CE0101960E94BE05CE0101960E9444
:100D7000E51808E812E0F801E190F1908F0167E4CE
:100D800071E0CE0101960E945319BE016F5F7F4F43
:100D9000C7010E942504CE0101960E94E518F2E0E9
:100DA0000E381F0741F710927B026EE471E089E96B
:100DB00093E00E94C11826960FB6F894DEBF0FBECE
:100DC000CDBFDF91CF911F910F91FF90EF900895CC
:100DD0000F931F93CF93DF9300D000D000D0CDB7F7
:100DE000DEB76AE070E08EE892E00E94361A21E3F6
:100DF000FC01208369E070E08EE892E00E94361AE0
:100E000020910A01222311F021E301C020E3FC011B
:100E1000208368E070E08EE892E00E94361A8C0130
:100E200069E070E08EE892E00E94361AFC01808151
:100E3000813311F480E301C081E3F80180836EE81F
:100E400072E0CE0101960E948019CE0101960E94A7
:100E5000BE05CE0101960E94E5188091880290910E
:100E600089020E94780480918A0290918B020E94EC
:100E7000780480918C0290918D020E94780481E028
:100E800080937B0263E571E089E993E00E94C118D9
:100E900026960FB6F894DEBF0FBECDBFDF91CF917F
:100EA0001F910F9108951F920F920FB60F92112468
:100EB0004F925F926F927F928F929F92AF92BF926A
:100EC000CF92DF92EF92FF920F931F932F933F9356
:100ED0004F935F936F937F938F939F93AF93BF9342
:100EE000EF93FF93CF93DF93CDB7DEB72C97DEBFA1
:100EF000CDBF789402E812E0A12CB12CD801ED917D
:100F0000FD918D0186850E941F16892B09F037C23D
:100F10008501000F111F0E571D4FF801808191812F
:100F20000E94BF03E12CF12CC12C58018E01095FF6
:100F30001F4F40E3D42E5FE0752E6E2CD5016D91CE
:100F40007C916E5F7F4FC8010E948019B701C80174
:100F50000E94361AFC015080D5016D917C91685F2A
:100F60007F4FCE0101960E948019B701CE010196F4
:100F70000E94361AFC014080CE0101960E94E518BD
:100F8000C8010E94E518541439F1D5016D917C9186
:100F90006E5F7F4FCE0101960E948019B701CE018E
:100FA00001960E94361AFC018080CE0101960E94B3
:100FB000E518F0E38F1203C021E3922E02C090E304
:100FC000992ED501ED91FC918785860DCD2CC81AFF
:100FD000B72DB81BB23040F0EFEFEE1AFE0AF0E189
:100FE000EF16F10409F0A9CF80917B02811104C0B2
:100FF00084E1C812CCC143C1D12C91E3891235C11F
:10100000F6013197E832F10508F02FC1EC5CFF4F93
:101010000C947F1A6CE170E08EE892E00E94361A20
:10102000DC018C91803319F468E571E002C06CE555
:1010300071E089E993E00E94C11817C180E001C006
:1010400081E00E945B06A3C182E0FBCF83E0F9CF81
:1010500084E00E945B06109277021092760297C19C
:1010600080917A02843071F48091760290917702B7
:10107000019664E070E00E94491A90937702809391
:1010800076026EC180910A0191E0892780930A015E
:1010900069E070E08EE892E00E94361A8C0169E007
:1010A00070E08EE892E00E94361AFC018081813364
:1010B00011F480E301C081E3D8018C9368E070E013
:1010C0008EE892E00E94361A8C0169E070E08EE8AA
:1010D00092E00E94361AFC018081813311F480E392
:1010E00001C081E3D8018C933BC1E0917A02F0E02A
:1010F000EE0FFF1FEC56FD4F608171816C5E7F4FDC
:1011000006C18091790291E0892780937902882332
:1011100081F060E671E0CE0101960E945319BE0194
:101120006F5F7F4F80918C0290918D020E94250409
:1011300021C180918C0290918D020E94780427C178
:1011400065E671E0CE0101960E94531961E307C084
:101150006AE671E0CE0101960E94531962E3CE0166
:1011600001960E943B0506C16FE671E0CE01019633
:101170000E94531963E3F3CF64E771E0CE01019657
:101180000E94531964E3EBCF69E771E0CE01019649
:101190000E94531965E3E3CF6EE771E0CE0101963B
:1011A0000E94531966E3DBCF63E871E0CE0101963C
:1011B0000E94531967E3D3CF68E871E0CE0101962E
:1011C0000E94531960E3CBCF88E30E94A504DFC0DF
:1011D00080917902882319F06DE871E098C00E942F
:1011E00094109F938F9382E991E09F938F931F9325
:1011F0000F930E94CA1CB801CE0101960E94531998
:1012000080918C0290918D02BE016F5F7F4F40965E
:101210000E946919CE0101960E94E51800918C0286
:1012200010918D0281E0F80185830E94EB14D801B2
:1012300016966D937D938D939C93199780918C0254
:1012400090918D020E9478040F900F900F900F9054
:101250000F900F909CC080917902882319F067E964
:1012600071E055C065E671E052C0F6017497ED314A
:10127000F10508F08CC0E45AFF4F0C947F1AB1E3DB
:101280008B1203C00E94E80682C00E9497067FC0AE
:101290006CE971E02AC060EA71E027C064EA71E09D
:1012A00089E993E00E949218692D89E993E00E94F0
:1012B000D31868EA71E019C06CEA71E016C060EBFF
:1012C00071E089E993E00E949218692D89E993E021
:1012D0000E94D31864EB71E008C068EB71E005C0B0
:1012E0006CEB71E002C060EC71E089E993E00E9470
:1012F0009218692D89E993E00E94D31848C064ECE4
:1013000071E005C069EC71E002C06EEC71E089E942
:1013100093E00E94C1183BC0E0917A02F0E0EE0F2A
:10132000FF1FEC56FD4F60817181605F7F4F89E93F
:1013300093E00E94C11881E080930A0169E070E0A7
:101340008EE892E00E94361A21E3FC01208368E0D7
:1013500070E08EE892E00E94361A20E3DC012C93C4
:101360006EE872E0CE0101960E948019CE010196CE
:101370000E94BE05CE0101960E94E51808C0BFEF8D
:10138000AB1ABB0AE3E0AE16B10409F0B7CD2C9658
:101390000FB6F894DEBF0FBECDBFDF91CF91FF91A6
:1013A000EF91BF91AF919F918F917F916F915F91DD
:1013B0004F913F912F911F910F91FF90EF90DF90F0
:1013C000CF90BF90AF909F908F907F906F905F90E5
:1013D0004F900F900FBE0F901F9018956F927F92B5
:1013E0008F92AF92CF92DF92EF92FF920F931F9363
:1013F000CF93DF9300D000D000D0CDB7DEB726E08A
:1014000040E052EC61E070E089E993E00E942B1724
:1014100000E210E065E471E08EE892E00E94001ABC
:1014200001501109B9F71092790260E08BE00E9437
:10143000B01560E08CE00E94B01560E08DE00E9485
:10144000B01561E082E00E94B01561E083E00E9487
:10145000B01561E084E00E94B01561E085E00E9473
:10146000B01561E086E00E94B01561E087E00E945F
:10147000B01560E086EA92E00E942A1060E084EAFB
:1014800092E00E942A1086EA92E00E94391081E1DF
:1014900090E00E9442183C014091A2025091A302A8
:1014A0000FE220E26BE00E94DE0170928302609204
:1014B000820281E190E00E9442183C0140910B01C0
:1014C00050910C010FE120E16CE00E94DE0170926E
:1014D00085026092840281E190E00E9442183C0102
:1014E0004091A0025091A1020FE020E06DE00E9427
:1014F000DE01709287026092860266E086EA92E0E0
:101500000E940A0F66E084EA92E00E940A0F85E0DA
:1015100090E00E9444188C01FC01108281E08183DC
:1015200082E0828383E0838384E0848386E190E0A9
:101530000E9442183C0125E040E050E0B8010E94C2
:101540004705709289026092880285E090E00E94CF
:1015500044188C0185E0F801808386E0818387E070
:10156000828388E0838389E0848386E190E00E941F
:1015700042183C0125E041E050E0B8010E944705D7
:1015800070928B0260928A0284E090E00E9444187C
:101590008C018DE0F80180838CE081838BE0828375
:1015A0008AE0838386E190E00E9442183C0124E0B7
:1015B00042E050E0B8010E94470570928D026092AF
:1015C0008C028AE090E00E9442188C01E0908A022E
:1015D000F0908B0260E088E00E94B01560E089E046
:1015E0000E94B0158EE090E00E9442183C0149E054
:1015F00050E068E070E00E94D110F80177826682C6
:10160000F186E08610939F0200939E0286E290E0AE
:101610000E9442183C0163E0862E77E0A72EE2ED9F
:10162000CE2EE1E0DE2EF6EDEF2EF1E0FF2E0AEDFC
:1016300011E02EED31E042EE51E066EE71E00E94E5
:10164000F500709295026092940286E290E00E940A
:1016500042183C01A2E08A2EB6E0AB2E1AEEC12E53
:1016600011E0D12E0EEEE02E01E0F02E02EF11E09F
:1016700026EF31E04AEF51E06EEF71E00E94F50095
:10168000709297026092960286E290E00E94421861
:101690003C018824839485E0A82E92E0C92E92E034
:1016A000D92E26E0E22E22E0F22E0AE012E02EE011
:1016B00032E042E152E066E172E0C3010E94F500CF
:1016C000709299026092980286E290E00E9442181D
:1016D0003C01812C34E0A32E4AE1C42E42E0D42EFA
:1016E0005EE1E52E52E0F52E02E212E026E232E063
:1016F0004AE252E06EE272E00E94F50070929B02B4
:1017000060929A0286E290E00E9442183C016DE0ED
:10171000862E7CE0A72EE2E3CE2EE2E0DE2EFDE474
:10172000EF2EF1E0FF2E01E211E021E131E045E290
:1017300051E065E171E00E94F50070929D026092B7
:101740009C0262E370E080E090E00E941A158091B4
:101750008202909183020E94BF0380918402909143
:1017600085020E94BF0380918602909187020E94A9
:10177000BF036EE872E0CE0101960E948019CE018F
:1017800001960E94BE05CE0101960E94E5188BE0ED
:101790000E941A028CE00E941A028DE00E941A0236
:1017A00080917A020E945B066091840270918502AA
:1017B0006E5F7F4FCE0101960E9480196CE070E051
:1017C000CE0101960E94361AFC011081CE010196CD
:1017D0000E94E518103319F40E94970602C00E9477
:1017E000E80626960FB6F894DEBF0FBECDBFDF9198
:1017F000CF911F910F91FF90EF90DF90CF90AF901E
:101800008F907F906F900895CF93DF9361E086EA89
:1018100092E00E94AB0E62E084EA92E00E94AB0E7E
:1018200082E090E00E944218EC0163E00E94AB0E5F
:10183000D093A302C093A20282E090E00E944218DB
:10184000EC0160E00E94AB0ED093A102C093A00215
:101850006DE471E08EE892E0DF91CF910C94531922
:101860008EE892E00C94E5180F931F930E94EB14FE
:1018700060937C0270937D0280937E0290937F023E
:1018800089E993E00E944816892BA9F40E94EB1481
:1018900000917C0210917D0220917E0230917F02A6
:1018A000601B710B820B930B693E734081059105A0
:1018B00038F380E304C089E993E00E9461161F9128
:1018C0000F910895EF92FF920F931F93CF93DF93A1
:1018D000EC017B016DE471E00E94531900E010E01F
:1018E0000E151F059CF40E94340C8093780290ED35
:1018F000980F9A3010F08E3211F4682F01C060E317
:10190000CE010E94101A0F5F1F4FEACFCE01DF9168
:10191000CF911F910F91FF90EF9008950F931F9318
:10192000CF93DF9300D000D000D0CDB7DEB70E94B8
:10193000340C8093800290E0FC01E154F109E33122
:10194000F10508F0AEC0E758FF4F0C947F1A63E032
:1019500070E002C062E070E08EE892E00E94361A09
:101960008C010E94340CF80180839BC061E070E020
:10197000F3CF60E070E0F0CF6DE070E0EDCF67E0B6
:1019800070E0CE0101960E94620C809194029091C9
:10199000950241C067E070E0CE0101960E94620CA2
:1019A000809194029091950245C067E070E0CE016D
:1019B00001960E94620C80919602909197022BC032
:1019C00067E070E0CE0101960E94620C8091960261
:1019D000909197022FC066E070E0CE0101960E94C0
:1019E000620C809198029091990215C066E070E0B7
:1019F000CE0101960E94620C80919802909199020A
:101A000019C066E070E0CE0101960E94620C8091E0
:101A10009A0290919B02BE016F5F7F4F48963BC038
:101A200066E070E0CE0101960E94620C80919A02FD
:101A300090919B02BE016F5F7F4F4E962CC066E077
:101A400070E0CE0101960E94620C80919C02909100
:101A50009D02BE016F5F7F4F4E960E946919CE01B5
:101A600001960E94E51880919C0290919D0268E485
:101A700071E048960E94891914C064E070E0CE01BC
:101A800001960E94620C80918C0290918D02BE01A1
:101A90006F5F7F4F0A960E946919CE0101960E94DE
:101AA000E5186BE070E08EE892E00E94361A8C0137
:101AB000E0917A02F0E0EE0FFF1FEC56FD4F01902F
:101AC000F081E02D64A170E08EE892E00E94361A69
:101AD000FC018081F801808326960FB6F894DEBF62
:101AE0000FBECDBFDF91CF911F910F9108950F933E
:101AF0001F93CF93DF9300D000D000D0CDB7DEB7D7
:101B00000E94340C80938002843679F040F482364F
:101B1000D9F0833609F0C9C06DE170E00BC086369C
:101B200091F130F0873699F0C0C06AE170E002C0F0
:101B30006BE170E08EE892E00E94361A8C010E9400
:101B4000340CF8018083B1C06CE170E0F3CF0E94E7
:101B5000340C80937802803341F480917B02882397
:101B600009F4A3C063E571E009C0813309F09DC0A9
:101B700080917B02811199C06EE471E089E993E064
:101B80000E94C11892C06AE070E0CE0101960E94E6
:101B9000620C62E170E08EE892E00E94361A8C01DD
:101BA00062E070E0CE0101960E94361AFC0180814D
:101BB000F801808363E170E08EE892E00E94361ABB
:101BC0008C0163E070E0CE0101960E94361AFC01A0
:101BD0008081F801808364E170E08EE892E00E94E9
:101BE000361A8C0168E070E0CE0101960E94361A28
:101BF000FC018081F801808365E170E08EE892E06D
:101C00000E94361A8C0164E070E0CE0101960E94B9
:101C1000361AFC018081F801808366E170E08EE86D
:101C200092E00E94361A8C0166E070E0CE010196C7
:101C30000E94361AFC018081F801808367E170E020
:101C40008EE892E00E94361A8C0161E070E0CE01CD
:101C500001960E94361AFC018081F801808361E1BF
:101C600070E08EE892E00E94361A8C0165E070E028
:101C7000CE0101960E94361AFC018081F801808312
:101C800060E170E08EE892E00E94361A8C0169E013
:101C900070E0CE0101960E94361AFC018081F801A5
:101CA0008083CE0101960E94E51826960FB6F8941F
:101CB000DEBF0FBECDBFDF91CF911F910F91089571
:101CC0000F931F93CF93DF930E94CE02C0918C029B
:101CD000D0918D028D81882379F00E94EB140E81C2
:101CE0001F8128853985601B710B820B930B693B23
:101CF0007B408105910518F589E993E00E9448161B
:101D0000892B21F10E94340C8C3329F08D3331F46E
:101D10000E948E0C0EC00E94770D0BC089E993E0E3
:101D20000E944816892B29F089E993E00E946116E8
:101D3000F5CFDF91CF911F910F910C94F3051D8288
:101D4000CE010E94780410928102D6CFDF91CF910C
:101D50001F910F910895FC01608321E021838EEC97
:101D600092E00C940C12CF92DF92EF92FF920F93BD
:101D70001F93CF93DF93EC017B016DE471E00E9430
:101D8000531900E010E088E0C82ED12CF7018481BF
:101D900095819601281B390B0217130740F465E45F
:101DA00071E0CE010E94001A0F5F1F4FEFCFB70105
:101DB000CE010E94F919CE01DF91CF911F910F91B1
:101DC000FF90EF90DF90CF9008951F93CF93DF9314
:101DD0001F92CDB7DEB7162FFC0160818EEC92E02A
:101DE00049830E942312612F8EEC92E00E94CD1154
:101DF0004981642F8EEC92E00E94CD118EEC92E02E
:101E00000F90DF91CF911F910C942F12462F69E014
:101E10000C94E50E462F6AE00C94E50EFC0131812E
:101E200031110FC0453469F128F4403291F14D323F
:101E300031F130C04C3449F1403549F1483451F565
:101E400022C0463431F168F44334E9F028F44134D7
:101E5000B1F04234B1F01EC04434B9F04534B9F0A9
:101E600019C0433681F028F4413649F0423649F032
:101E700011C0453661F048F0463659F00BC04AE0D3
:101E800009C04BE007C04CE005C04DE003C04EE088
:101E900001C04FE0213009F440686F5F0C94E50EFB
:101EA000FF920F931F93CF93DF93EC01F62E8A01DD
:101EB00068818EEC92E00E9423126F2D8EEC92E0EE
:101EC0000E94CD118EEC92E00E942F12F8018083C7
:101ED00041E068818EEC92E00E9416128EEC92E056
:101EE0000E947D11DF91CF911F910F91FF90089576
:101EF000BF92CF92DF92EF92FF920F931F93CF93F7
:101F0000DF93CDB7DEB76E970FB6F894DEBF0FBE86
:101F1000CDBF8C017B016A016CE1C7010E94500FAB
:101F2000B82EA6016DE1C7010E94500F8095682F61
:101F300070E042E0CE010D960E94A119BE01635FE0
:101F40007F4FCE0107960E94B30EB0946B2D70E0C8
:101F500042E0CE0149960E94A119BE01675E7F4F03
:101F6000CE0143960E94B30EBE016D5E7F4FCE013F
:101F700001960E948019BE01695F7F4FCE010196D4
:101F80000E94231ABC01C8010E948019CE0101964B
:101F90000E94E518CE0143960E94E518CE014996AD
:101FA0000E94E518CE0107960E94E518CE010D9615
:101FB0000E94E518C8016E960FB6F894DEBF0FBEFA
:101FC000CDBFDF91CF911F910F91FF90EF90DF90E8
:101FD000CF90BF900895CF92DF92EF92FF920F9330
:101FE0001F93CF93DF931F92CDB7DEB76C01F62E10
:101FF000E42E40E050E029830E94500F29812223E3
:1020000071F001E010E020E030E004C0000F111F8B
:10201000221F331FEA94D2F7482F402B0EC001E055
:1020200010E020E030E004C0000F111F221F331F1A
:10203000EA94D2F7402F409548236F2DC6010F90A8
:10204000DF91CF911F910F91FF90EF90DF90CF9094
:102050000C94E50E1F93CF93DF93EC01162F262FE0
:1020600042E06EE00E94EB0F1983DF91CF911F9148
:102070000895CF93DF93EC0160E070E08EEC92E086
:102080000E942D126CE08EEC92E00E94CD1161E076
:102090008EEC92E00E94CD118EEC92E00E942F1205
:1020A00060E070E08EEC92E00E942D126DE28EEC0A
:1020B00092E00E94CD1161E08EEC92E00E94CD1181
:1020C0008EEC92E00E942F1264E170E080E090E0DC
:1020D0000E941A1541E06CE0CE010E94E50E47E037
:1020E0006BE0CE010E94E50E6FEFCE010E940A0F59
:1020F0006FEFCE010E94060F6981CE01DF91CF9173
:102100000C942A10E0913904F0913A0480E090E0B8
:10211000309749F0029620813181820F931F02800F
:10212000F381E02DF5CF08950F931F93CF93DF93A5
:1021300000D0CDB7DEB780913704909138048E017E
:102140000F5F1F4F009729F40B5314401A83098324
:102150000AC0081B190B1A8309830E948210800F82
:10216000911F9A83898389819A810F900F90DF91C3
:10217000CF911F910F9108950F931F93CF93DF93EA
:10218000EC018A810E941F168C0188810E941F1613
:10219000000F111F802B912BDF91CF911F910F9179
:1021A0000895FF920F931F93CF93DF93EC018B0160
:1021B000F42E798368834A835B831D821C821F828D
:1021C0001E82198618861A861B8660E0802F0E9460
:1021D000B01560E08F2D0E94B01561E0802F0E9445
:1021E000E91561E08F2D0E94E915CE010E94BC1017
:1021F0009D878C87E0E7F0E0808181608083F80133
:10220000EE0FFF1FE855FD4FD183C083DF91CF91C3
:102210001F910F91FF9008950F931F93CF93DF931A
:1022200008EA12E0F801C191D1918F01209781F164
:10223000CE010E94BC102C853D858217930741F189
:102240002C813D81EC85FD85EE0FFF1FEE0FFF1FFA
:10225000E80FF91FEE0FFF1FEA5CFD4F408151812F
:10226000240F351F4A85442331F04E815F812417A6
:1022700035070CF49A014B85442331F04885598584
:10228000421753070CF49A013D832C839D878C875A
:10229000F2E00E3C1F0731F6DF91CF911F910F91B5
:1022A00008951F920F920FB60F9211242F933F9310
:1022B0004F935F936F937F938F939F93AF93BF934E
:1022C000EF93FF930E940C11FF91EF91BF91AF919B
:1022D0009F918F917F916F915F914F913F912F913E
:1022E0000F900FBE0F901F9018958091FE0290E006
:1022F0002091FF02821B910908952091FF02809195
:10230000FE02281750F4E22FF0E0E050FD4F8081EC
:1023100090E02F5F2093FF0208958FEF9FEF0895C5
:10232000E091FF028091FE02E81730F4F0E0E05007
:10233000FD4F808190E008958FEF9FEF08950895FD
:10234000CF92DF92EF92FF920F931F93CF93DF9381
:102350007C01CB018A012091DA02222389F0EB0172
:102360006B01C40ED51ECC15DD0569F06991D7014E
:10237000ED91FC910190F081E02DC7010995F3CF1B
:10238000642F0E945C12C801DF91CF911F910F91C1
:10239000FF90EF90DF90CF900895CF93DF931F923F
:1023A000CDB7DEB769832091DA022223D1F02091E4
:1023B000DB02203240F021E030E0FC013383228355
:1023C00080E090E015C08091DC02E82FF0E0E3525D
:1023D000FD4F998190838F5F8093DC028093DB02B5
:1023E00005C061E0CE0101960E945C1281E090E0A0
:1023F0000F90DF91CF910895FC011382128248EE75
:1024000053E060E070E044835583668377838AE518
:1024100092E09183808308951092FF021092FE0251
:102420001092DC021092DB020C944312862F413290
:1024300008F040E260E073E00E94B4121092FF02E4
:102440008093FE02089581E08093DA026093FD029A
:102450001092DC021092DB0208950C94231221E00A
:102460004091DB026DED72E08091FD020E94041349
:102470001092DC021092DB021092DA0208958EECC8
:1024800092E00C94FC1110928F0360E082E10E94B4
:10249000E91560E083E10E94E915E9EBF0E0808155
:1024A0008E7F808380818D7F808388E48093B800D5
:1024B00085E48093BC000895613298F420918F03E5
:1024C000243089F460934603FC0188E493E0DC0146
:1024D0002A2F281B261718F421912D93F9CF80E07D
:1024E000089581E0089582E0089585EC8093BC0012
:1024F00010928F030895882349F0109220031092C0
:102500002103109222031092230313C08091200311
:1025100090912103A0912203B09123030196A11D64
:10252000B11D8093200390932103A0932203B093C5
:1025300023038091200390912103A0912203B09165
:102540002303803A9648A140B10560F01092200321
:102550001092210310922203109223030E9443122F
:1025600081E0089580E008950F931F93CF93DF9348
:10257000082F162FD72FC42F413208F03FC081E01B
:102580000E947B1280918F03882329F080E00E94B3
:102590007B128823B9F381E080938F038FEF8093C0
:1025A0002403109269038C0F80936803802F880F97
:1025B000816080938E0385EE8093BC0081E00E9451
:1025C0007B1280918F03813029F480E00E947B127E
:1025D0008823B9F3809169038C1710F4C0916903C3
:1025E0002AE633E0E12FFD2FD9018A2F821B8C17B9
:1025F00018F48D918193F9CF8C2F01C080E0DF9189
:10260000CF911F910F910895FF920F931F93CF9336
:10261000DF93182FF62E072FC42FD22F81E04132DF
:1026200008F050C00E947B1280918F03882339F0FC
:1026300080E00E947B128823B9F385E043C082E0EA
:1026400080938F038FEF8093240310926903C093CC
:102650006803EF2DF02F6AE673E0DB018A2F861BFB
:102660008C1718F481918D93F9CF812F90E0880F0A
:10267000991F80938E0385EE8093BC0081E00E94B9
:102680007B12D11105C0809124038F3F61F415C0E6
:1026900080918F038230B9F780E00E947B128823FB
:1026A000B9F386E00FC080912403803241F080911D
:1026B0002403803331F483E005C080E003C082E06E
:1026C00001C084E0DF91CF911F910F91FF90089599
:1026D00085ED8093BC0081E00E947B128091BC005C
:1026E00084FF06C080E00E947B128823B9F302C0F9
:1026F00010928F0308951F920F920FB60F9211241C
:102700002F933F934F935F936F937F938F939F93F9
:10271000AF93BF93EF93FF938091B900887F80368A
:1027200009F495C068F5883209F45BC090F48031F3
:1027300009F454C038F4882309F4EEC0883009F451
:102740004DC0EEC0883109F44CC0803209F45EC03F
:10275000E7C0803409F469C048F4803309F456C0F6
:10276000883309F0DDC080932403A1C0803509F4CB
:1027700050C0883509F45EC0883409F0D1C0CEC09D
:10278000883909F4BFC0A8F4883709F460C038F468
:10279000883609F45CC0803709F459C0C1C0883854
:1027A00009F4B0C0803909F458C0803809F0B8C0C5
:1027B00054C0803B09F47EC038F4803A09F45FC00D
:1027C000883A09F477C0ACC0803C09F49FC0883CCB
:1027D00009F49CC0883B09F482C0A2C080918E039A
:1027E00011C09091690380916803981708F096C012
:1027F000E091690381E08E0F80936903F0E0E65970
:10280000FC4F80818093BB0085EC7DC080932403C6
:1028100085C0E091690381E08E0F80936903809108
:10282000BB00F0E0E659FC4F8083909169038091F2
:10283000680365C0E091690381E08E0F80936903AE
:102840008091BB00F0E0E659FC4F808367C083E0D5
:1028500080938F0310922503D7CF80912503803278
:1028600008F050C0E091250381E08E0F809325038E
:102870008091BB00F0E0EA5DFC4F8083C5CF809182
:102880002503803230F4E0912503F0E0EA5DFC4F4F
:1028900010820E9468136091250370E0E0918A0322
:1028A000F0918B0386E293E00995109225030E9434
:1028B000751236C084E080938F0310924703109204
:1028C0004603E0918C03F0918D03099580914603B6
:1028D000811105C081E08093460310924803E09186
:1028E000470381E08E0F80934703F0E0E85BFC4FE5
:1028F00080818093BB009091470380914603981795
:1029000008F482CF85E88093BC000AC085EC8093F0
:10291000BC0010928F0304C0109224030E9468131D
:10292000FF91EF91BF91AF919F918F917F916F91A7
:102930005F914F913F912F910F900FBE0F901F907D
:1029400018951F920F920FB60F9211242F933F9359
:102950008F939F93AF93BF93809191039091920334
:10296000A0919303B09194033091900323E0230F3F
:102970002D3720F40196A11DB11D05C026E8230FB7
:102980000296A11DB11D2093900380939103909313
:102990009203A0939303B093940380919503909135
:1029A0009603A0919703B09198030196A11DB11DC4
:1029B0008093950390939603A0939703B093980305
:1029C000BF91AF919F918F913F912F910F900FBE2B
:1029D0000F901F9018952FB7F89460919103709104
:1029E000920380919303909194032FBF08953FB772
:1029F000F8948091950390919603A0919703B091DC
:102A0000980326B5A89B05C02F3F19F00196A11D7C
:102A1000B11D3FBF6627782F892F9A2F620F711D36
:102A2000811D911D42E0660F771F881F991F4A95EF
:102A3000D1F70895CF92DF92EF92FF92CF93DF9379
:102A40006B017C010E94F714EB01C114D104E10475
:102A5000F10489F00E94481A0E94F7146C1B7D0B48
:102A6000683E734090F381E0C81AD108E108F1088C
:102A7000C851DC4FEACFDF91CF91FF90EF90DF900C
:102A8000CF900895019739F0880F991F880F991FEB
:102A900002970197F1F70895789484B5826084BD18
:102AA00084B5816084BD85B5826085BD85B5816052
:102AB00085BDEEE6F0E0808181608083E1E8F0E0B2
:102AC0001082808182608083808181608083E0E8E1
:102AD000F0E0808181608083E1EBF0E080818460C0
:102AE0008083E0EBF0E0808181608083EAE7F0E0C2
:102AF0008081846080838081826080838081816026
:102B000080838081806880831092C1000895833023
:102B100081F028F4813099F08230A1F00895873057
:102B2000A9F08830B9F08430D1F4809180008F7D95
:102B300003C0809180008F7780938000089584B5D2
:102B40008F7702C084B58F7D84BD08958091B000D9
:102B50008F7703C08091B0008F7D8093B00008957F
:102B6000CF93DF9390E0FC01E45DFE4F2491FC01E4
:102B7000E05CFE4F8491882349F190E0880F991F13
:102B8000FC01E859FE4FA591B491825A9E4FFC0179
:102B9000C591D4919FB7611108C0F8948C9120958C
:102BA00082238C93888182230AC0623051F4F89486
:102BB0008C91322F309583238C938881822B88834C
:102BC00004C0F8948C91822B8C939FBFDF91CF919E
:102BD00008950F931F93CF93DF931F92CDB7DEB766
:102BE000282F30E0F901E85EFE4F8491F901E45DA1
:102BF000FE4F1491F901E05CFE4F04910023C9F0EF
:102C0000882321F069830E9487156981E02FF0E015
:102C1000EE0FFF1FE25AFE4FA591B4919FB7F894B3
:102C20008C91611103C01095812301C0812B8C937D
:102C30009FBF0F90DF91CF911F910F910895CF9378
:102C4000DF93282F30E0F901E85EFE4F8491F9010F
:102C5000E45DFE4FD491F901E05CFE4FC491CC23BA
:102C600091F081110E948715EC2FF0E0EE0FFF1F0D
:102C7000EC5AFE4FA591B4912C912D2381E090E068
:102C800021F480E002C080E090E0DF91CF910895D0
:102C9000FC01818D228D90E0805C9F4F821B910909
:102CA0008F7399270895FC01918D828D981731F0CB
:102CB000828DE80FF11D858D90E008958FEF9FEFD5
:102CC0000895FC01918D828D981761F0828DDF014E
:102CD000A80FB11D5D968C91928D9F5F9F73928F0F
:102CE00090E008958FEF9FEF089585EE97E1892B8F
:102CF00049F080E090E0892B29F00E94E5178111CE
:102D00000C9400000895FC01848DDF01A80FB11D13
:102D1000A35ABF4F2C91848D90E001968F73992711
:102D2000848FA689B7892C93A089B1898C918064FE
:102D30008C93938D848D981306C00288F389E02DBF
:102D400080818F7D80830895CF93DF93EC01888D00
:102D50008823C9F0EA89FB89808185FD05C0A8899F
:102D6000B9898C9186FD0FC00FB607FCF5CF808125
:102D700085FFF2CFA889B9898C9185FFEDCFCE016F
:102D80000E948316E7CFDF91CF910895CF92DF9213
:102D9000FF920F931F93CF93DF931F92CDB7DEB7B0
:102DA0006C01DC015B969C915B975C968C915C97C7
:102DB000981307C05096ED91FC915197808185FD45
:102DC00032C0F601038D10E00F5F1F4F0F73112704
:102DD000F02EF601848DF81211C00FB607FCF9CF62
:102DE000D6015096ED91FC915197808185FFF1CFEE
:102DF000C60169830E9483166981EBCF838DE80F3A
:102E0000F11DE35AFF4F6083D6015B960C935B97ED
:102E10005296ED91FC91539780818062808381E08E
:102E200058968C930DC0D6015696ED91FC9157970C
:102E300060835096ED91FC915197808180648083EE
:102E400081E090E00F90DF91CF911F910F91FF9063
:102E5000DF90CF900895BF92CF92DF92EF92FF92D2
:102E6000CF93DF93EC016A017B01B22EE889F989E7
:102E700082E08083411581EE580761057105A1F05C
:102E800060E079E08DE390E0A70196010E945D1A71
:102E90002150310941095109569547953795279594
:102EA000211580E1380798F0E889F989108260E8F7
:102EB00074E88EE190E0A70196010E945D1A21500E
:102EC0003109410951095695479537952795EC8564
:102ED000FD853083EE85FF852083188EEC89FD8982
:102EE000B082EA89FB89808180618083EA89FB89DD
:102EF000808188608083EA89FB8980818068808303
:102F0000EA89FB8980818F7D8083DF91CF91FF905B
:102F1000EF90DF90CF90BF9008951F920F920FB661
:102F20000F9211242F938F939F93EF93FF93E09130
:102F3000A903F091AA038081E091AF03F091B0035F
:102F400082FD12C090818091B2038F5F8F732091B8
:102F5000B303821751F0E091B203F0E0E756FC4F63
:102F6000958F8093B20301C08081FF91EF919F9173
:102F70008F912F910F900FBE0F901F9018951F9259
:102F80000F920FB60F9211242F933F934F935F939D
:102F90006F937F938F939F93AF93BF93EF93FF9321
:102FA00089E993E00E948316FF91EF91BF91AF9161
:102FB0009F918F917F916F915F914F913F912F9151
:102FC0000F900FBE0F901F90189589E993E00E9413
:102FD000481621E0892B09F420E0822F08951092F1
:102FE0009C0310929B0388EE93E0A0E0B0E08093F6
:102FF0009D0390939E03A0939F03B093A0038AE642
:1030000092E090939A038093990385EC90E09093DB
:10301000A6038093A50384EC90E09093A80380938B
:10302000A70380EC90E09093AA038093A90381EC1E
:1030300090E09093AC038093AB0382EC90E090938C
:10304000AE038093AD0386EC90E09093B003809341
:10305000AF031092B2031092B3031092B403109214
:10306000B503089508950E944C150E9432180E94DD
:10307000EE09C5E7D6E10E94600E2097E1F30E94B9
:103080007516F9CF0C94991A0C94991ACF92DF9275
:10309000EF92FF920F931F93CF93DF936C017A010E
:1030A000EB01E60EF71E00E010E0CE15DF0561F043
:1030B0006991D601ED91FC910190F081E02DC6015E
:1030C0000995080F191FF1CFC801DF91CF911F910A
:1030D0000F91FF90EF90DF90CF90089561157105EB
:1030E00081F0DB010D900020E9F7AD01415051095D
:1030F000461B570BDC01ED91FC910280F381E02D22
:10310000099480E090E00895DC01ED91FC91DB01F1
:1031100014964D915C9115976D917C910280F3818D
:10312000E02D09940C946E18DC01ED91FC91019056
:10313000F081E02D09940F931F93CF93DF93EC015F
:103140006DE00E9494188C016AE0CE010E949418F0
:10315000800F911FDF91CF911F910F9108950F93D1
:103160001F93CF93DF93EC010E9484188C01CE0152
:103170000E949B18800F911FDF91CF911F910F919B
:1031800008950F931F93CF93DF93EC010E946E1865
:103190008C01CE010E949B18800F911FDF91CF916F
:1031A0001F910F9108950F931F93CF93DF93EC011D
:1031B0000E9494188C01CE010E949B18800F911FD1
:1031C000DF91CF911F910F910895FC018081918132
:1031D0000C94311BCF93DF93EC0188819981009788
:1031E00011F00E94311B198218821D821C821B82E1
:1031F0001A82DF91CF9108950F931F93CF93DF939E
:10320000EC018B016F5F7F4F888199810E94C01B09
:10321000009731F0998388831B830A8381E001C082
:1032200080E0DF91CF911F910F910895CF93DF93AD
:10323000EC0188819981892B29F08A819B818617ED
:10324000970760F4CE010E94FC18882341F08C811E
:103250009D81892B19F4E881F981108281E0DF9149
:10326000CF910895EF92FF920F931F93CF93DF9327
:10327000EC017B018A01BA010E941619811104C078
:10328000CE010E94EA1807C01D830C83B701888114
:1032900099810E94931CCE01DF91CF911F910F91D4
:1032A000FF90EF900895FC01118210821382128228
:1032B000158214826115710559F0FB0101900020FF
:1032C000E9F7AF0141505109461B570B0C943219D5
:1032D0000895CF93DF93EC01FB018617970761F008
:1032E000608171816115710529F0448155810E94C9
:1032F000321902C00E94EA18CE01DF91CF910895E1
:10330000FC011182108213821282158214820C94A5
:103310006919CF93DF93EC016115710561F0FB0131
:1033200001900020E9F7AF0141505109461B570BAE
:103330000E94321902C00E94EA18CE01DF91CF919B
:1033400008950F931F93CF93DF93CDB7DEB76297A6
:103350000FB6F894DEBF0FBECDBF8C01CB01F801D4
:1033600011821082138212821582148250E0BE01F3
:103370006F5F7F4F0E949A1CBE016F5F7F4FC80135
:103380000E94891962960FB6F894DEBF0FBECDBFBA
:10339000DF91CF911F910F910895EF92FF920F93BC
:1033A0001F93CF93DF93EC017B010C811D8161158D
:1033B000710511F480E016C04115510591F0040F1C
:1033C000151FB8010E9416198823A1F3288139819D
:1033D0008C819D81B701820F931F0E94931C1D83D6
:1033E0000C8381E0DF91CF911F910F91FF90EF90BF
:1033F0000895FB0144815581608171810C94CD1940
:103400006115710559F0FB0101900020E9F7AF014A
:1034100041505109461B570B0C94CD1980E008957B
:10342000CF93DF9300D0CDB7DEB769831A8241E036
:1034300050E0BE016F5F7F4F0E94CD190F900F903B
:10344000DF91CF910895CF93DF93EC01FB0144818D
:103450005581608171810E94CD19811103C0CE0117
:103460000E94EA18CE01DF91CF910895FC0184817A
:1034700095816817790720F480819181009729F45C
:103480001092360486E394E00895860F971F0895FE
:10349000089597FB072E16F4009407D077FD09D006
:1034A0000E94851A07FC05D03EF4909581959F4FA8
:1034B0000895709561957F4F0895A1E21A2EAA1B79
:1034C000BB1BFD010DC0AA1FBB1FEE1FFF1FA217D4
:1034D000B307E407F50720F0A21BB30BE40BF50BD1
:1034E000661F771F881F991F1A9469F7609570955A
:1034F000809590959B01AC01BD01CF010895EE0F21
:10350000FF1F0590F491E02D0994AA1BBB1B51E10C
:1035100007C0AA1FBB1FA617B70710F0A61BB70B43
:10352000881F991F5A95A9F780959095BC01CD01E8
:103530000895CF93DF938230910510F482E090E0FC
:10354000E0913904F0913A0420E030E0A0E0B0E0EE
:10355000309739F14081518148175907B8F0481721
:10356000590771F482819381109729F013969C93E7
:103570008E9312972CC090933A048093390427C0FD
:103580002115310531F04217530718F0A901DB016D
:1035900001C0EF019A01BD01DF010280F381E02D3E
:1035A000D7CF21153105F9F0281B390B243031050F
:1035B00080F48A819B816115710521F0FB01938361
:1035C000828304C090933A0480933904FE013296BA
:1035D00044C0FE01E20FF31F819391932250310901
:1035E000398328833AC02091370430913804232B43
:1035F00041F420910201309103013093380420936B
:10360000370420910001309101012115310541F469
:103610002DB73EB74091040150910501241B350B95
:10362000E0913704F0913804E217F307A0F42E1B61
:103630003F0B2817390778F0AC014E5F5F4F241716
:10364000350748F04E0F5F1F5093380440933704FE
:103650008193919302C0E0E0F0E0CF01DF91CF9140
:103660000895CF93DF93009709F487C0FC01329748
:1036700013821282C0913904D0913A04209781F4C8
:1036800020813181280F391F8091370490913804AF
:103690008217930779F5F0933804E09337046DC0EF
:1036A000DE0120E030E0AE17BF0750F412964D91D6
:1036B0005C9113979D014115510509F1DA01F3CF92
:1036C000B383A28340815181840F951F8A179B0782
:1036D00071F48D919C911197840F951F029691839F
:1036E000808312968D919C911397938382832115E9
:1036F000310529F4F0933A04E09339043EC0D9012E
:103700001396FC93EE9312974D915D91A40FB51F04
:10371000EA17FB0779F480819181840F951F029647
:10372000D90111969C938E938281938113969C93D9
:103730008E931297E0E0F0E08A819B81009719F068
:10374000FE01EC01F9CFCE01029628813981820F6A
:10375000931F20913704309138042817390769F4F2
:10376000309729F410923A041092390402C013825F
:103770001282D0933804C0933704DF91CF9108951B
:10378000A0E0B0E0E6ECFBE10C94781FEC01CB018B
:10379000209719F40E94991AB8C0FE01E60FF71F8E
:1037A0009E0122503109E217F30708F4ACC0D90199
:1037B0000D911C91119706171707B8F005301105E8
:1037C00008F49FC0A801445051094617570708F450
:1037D00098C002501109061B170B019311936D93AA
:1037E0007C93CF010E94311B8CC05B01A01AB10AEF
:1037F0004E01800E911EA0913904B0913A04612CC3
:10380000712C60E070E0109709F449C0A815B90563
:10381000C9F5ED90FC901197670142E0C40ED11CF0
:10382000CA14DB0478F147018A189B08640142E05E
:10383000C40ED11C1296BC9012971396AC91B5E0B1
:10384000CB16D10440F0B282A38391828082D90149
:103850008D939C9309C00E5F1F4F0E0D1F1DF90124
:1038600011830083EB2DFA2F6115710531F0DB0117
:103870001396FC93EE93129744C0F0933A04E093AE
:1038800039043FC06D917C9111976616770608F454
:103890003B01BD0112960D90BC91A02DB4CF60915B
:1038A00037047091380468157905E9F468167906CB
:1038B000D0F440910001509101014115510541F4AE
:1038C0004DB75EB76091040170910501461B570B1F
:1038D000E417F507C0F4F0933804E0933704F901D6
:1038E000918380830EC00E94991A7C01009759F041
:1038F000A801BE010E948A1CCE010E94311BC70193
:1039000004C0CE0102C080E090E0CDB7DEB7EEE0AB
:103910000C94941FFB01DC0102C001900D924150F8
:103920005040D8F70895FB01DC0101900D92002072
:10393000E1F708954532510520F4423010F00C941F
:10394000A51CFB011082CB010895BB274A3031F43E
:10395000992322F4BDE2909581959F4F0C94B11C60
:10396000BB27FB015527AA27880F991FAA1FA41759
:1039700010F0A41B83955051B9F7A05DAA3308F04D
:10398000A95DA193009779F7B111B1931192CB0181
:103990000C94D41EAEE0B0E0E0EDFCE10C94821F8C
:1039A0000D891E8986E08C831A8309838FEF9FE738
:1039B0009E838D83AE01475E5F4F6F89788DCE0108
:1039C00001960E94EC1CEF81F885E00FF11F108238
:1039D0002E96E4E00C949E1FACE0B0E0E2EFFCE138
:1039E0000C94741F7C016B018A01FC011782168202
:1039F000838181FFBDC1CE0101964C01F701938106
:103A0000F60193FD859193FF81916F01882309F45D
:103A1000ABC1853239F493FD859193FF81916F019C
:103A2000853229F4B70190E00E94E41EE7CF512CC3
:103A3000312C20E02032A0F48B3269F030F4803257
:103A400059F0833269F420612CC08D3239F0803313
:103A500039F4216026C02260246023C0286021C080
:103A600027FD27C030ED380F3A3078F426FF06C026
:103A7000FAE05F9E300D1124532E13C08AE0389E69
:103A8000300D1124332E20620CC08E3221F426FD1D
:103A90006BC1206406C08C3611F4206802C08836E1
:103AA00041F4F60193FD859193FF81916F0181119E
:103AB000C1CF982F9F7D9554933028F40C5F1F4FF2
:103AC000FFE3F9830DC0833631F0833771F083351E
:103AD00009F05BC022C0F801808189830E5F1F4F0F
:103AE00044244394512C540115C03801F2E06F0E68
:103AF000711CF801A080B18026FF03C0652D70E025
:103B000002C06FEF7FEFC5012C870E94C91E2C01F8
:103B100083012C852F77222E17C03801F2E06F0E1B
:103B2000711CF801A080B18026FF03C0652D70E0F4
:103B300002C06FEF7FEFC5012C870E94BE1E2C01D3
:103B40002C852068222E830123FC1BC0832D90E04E
:103B500048165906B0F4B70180E290E00E94E41ED6
:103B60003A94F4CFF50127FC859127FE81915F01FE
:103B7000B70190E00E94E41E31103A94F1E04F1A30
:103B800051084114510471F7E5C0843611F08936AB
:103B900039F5F80127FF07C0608171818281938127
:103BA0000C5F1F4F08C060817181882777FD809569
:103BB000982F0E5F1F4F2F76B22E97FF09C090955A
:103BC0008095709561957F4F8F4F9F4F2068B22EE3
:103BD0002AE030E0A4010E94161FA82EA81844C0B5
:103BE000853729F42F7EB22E2AE030E025C0F22F4F
:103BF000F97FBF2E8F36C1F018F4883579F0B4C044
:103C0000803719F0883721F0AFC02F2F2061B22EF6
:103C1000B4FE0DC08B2D8460B82E09C024FF0AC0ED
:103C20009F2F9660B92E06C028E030E005C020E145
:103C300030E002C020E132E0F801B7FE07C0608149
:103C40007181828193810C5F1F4F06C060817181F9
:103C500080E090E00E5F1F4FA4010E94161FA82E67
:103C6000A818FB2DFF77BF2EB6FE0BC02B2D2E7F85
:103C7000A51450F4B4FE0AC0B2FC08C02B2D2E7E51
:103C800005C07A2C2B2D03C07A2C01C0752C24FF83
:103C90000DC0FE01EA0DF11D8081803311F4297EF3
:103CA00009C022FF06C07394739404C0822F8678E3
:103CB00009F0739423FD13C020FF06C05A2C73141F
:103CC00018F4530C5718732C731468F4B70180E27E
:103CD00090E02C870E94E41E73942C85F5CF73141A
:103CE00010F4371801C0312C24FF12C0B70180E353
:103CF00090E02C870E94E41E2C8522FF17C021FF34
:103D000003C088E590E002C088E790E0B7010CC0EE
:103D1000822F867859F021FD02C080E201C08BE23B
:103D200027FD8DE2B70190E00E94E41EA51438F44F
:103D3000B70180E390E00E94E41E5A94F7CFAA9462
:103D4000F401EA0DF11D8081B70190E00E94E41EAC
:103D5000A110F5CF332009F451CEB70180E290E0F5
:103D60000E94E41E3A94F6CFF7018681978102C043
:103D70008FEF9FEF2C96E2E10C94901FFC010590D1
:103D8000615070400110D8F7809590958E0F9F1F5D
:103D90000895FC016150704001900110D8F78095A2
:103DA00090958E0F9F1F0895DC01FC01672F719184
:103DB0007723E1F7329704C07C916D937083629111
:103DC000AE17BF07C8F308950F931F93CF93DF93E8
:103DD000182F092FEB018B8181FD03C08FEF9FEF1F
:103DE00020C082FF10C04E815F812C813D8142172F
:103DF00053077CF4E881F9819F012F5F3F4F39839E
:103E00002883108306C0E885F985812F0995892BC1
:103E100029F72E813F812F5F3F4F3F832E83812FD4
:103E2000902FDF91CF911F910F910895FA01AA274A
:103E3000283051F1203181F1E8946F936E7F6E5FED
:103E40007F4F8F4F9F4FAF4FB1E03ED0B4E03CD09B
:103E5000670F781F891F9A1FA11D680F791F8A1F7E
:103E6000911DA11D6A0F711D811D911DA11D20D0E5
:103E700009F468943F912AE0269F11243019305D9F
:103E80003193DEF6CF010895462F4770405D419390
:103E9000B3E00FD0C9F7F6CF462F4F70405D4A33DD
:103EA00018F0495D31FD4052419302D0A9F7EACFA5
:103EB000B4E0A6959795879577956795BA95C9F7D4
:103EC00000976105710508959B01AC010A2E0694C7
:103ED0005795479537952795BA95C9F7620F731F80
:103EE000841F951FA01D08952F923F924F925F92BD
:103EF0006F927F928F929F92AF92BF92CF92DF92FA
:103F0000EF92FF920F931F93CF93DF93CDB7DEB75E
:103F1000CA1BDB0B0FB6F894DEBF0FBECDBF0994F2
:103F20002A88398848885F846E847D848C849B8449
:103F3000AA84B984C884DF80EE80FD800C811B8157
:103F4000AA81B981CE0FD11D0FB6F894DEBF0FBE86
:103F5000CDBFED01089511E0C8E7D1E004C0FE0136
:103F60000E94811A2296CA37D107C9F7F894FFCF69
:103F700000003B0480000100000001A4024132382F
:103F80000041323700413236004132350041333290
:103F90000041333100413330004132390031323099
:103FA000300041343200303030303030303030305A
:103FB00030303030303000202020202020004134AC
:103FC0003330004134333100433035004330360064
:103FD0002D2D2D2D005931333100593134310059F7
:103FE00031353100593138310059313931005932C8
:103FF00030310059323131005932343100593232C6
:1040000031002530346400593233310043343300F9
:1040100043343400433439004334380043343500EA
:1040200043343700433431004334320043343600E4
:10403000433530005931373100593136310046317E
:1040400032004134350041303600413033004130D8
:1040500034004130310041303200413436004131CA
:1040600032004130390041313000413037004130B9
:104070003800413438004131380041313500413198
:10408000360041313300413134004134390041328E
:104090003400413231004132320041313900413285
:1040A0003000413532000000000000000000010037
:1040B00000000000FFFFFFFF000000000100000003
:1040C00000000000000000000000CD11A0117511DB
:1040D0007D1190119F1100000000C6164618481669
:0640E00061165316A41640
:00000001FF
